:020000040800F2
:1000000000500020F15E0008550300085703000867
:10001000590300085B0300085D03000800000000AE
:10002000000000000000000000000000914F0008E8
:100030005F03000800000000315000087550000800
:10004000395F0008395F0008395F0008395F000830
:10005000395F0008395F0008395F0008395F000820
:10006000395F0008395F0008395F0008395F000810
:10007000395F0008395F0008395F0008395F000800
:10008000395F0008395F0008395F0008395F0008F0
:1000900061030008395F0008395F0008395F000814
:1000A000395F0008395F0008395F0008395F0008D0
:1000B00071030008395F0008395F0008395F0008E4
:1000C000395F0008395F0008395F0008395F0008B0
:1000D000395F0008395F0008395F0008395F0008A0
:1000E000395F0008395F0008395F00080000000030
:1000F0000000000000000000000000000000000000
:0C01000000000000000000005FF808F1A3
:1001100010B5054C237833B9044B13B10448AFF341
:1001200000800123237010BDB001002000000000FA
:100130000861000808B5034B1BB103490348AFF33E
:10014000008008BD00000000B40100200861000824
:1001500008B50C4C0825A5700B4E2A4621463046A2
:1001600005F0D4FD322002F027FB0023A3702A46BD
:100170002146304605F0CAFD4FF47A6002F01CFBC0
:10018000E7E700BFCC0100207402002030B589B041
:10019000002404940594069407941D4B9A6942F038
:1001A00020029A619A6902F020020192019A9A69EA
:1001B00042F004029A619A6902F004020292029AE1
:1001C0009A6942F008029A619B6903F0080303935D
:1001D000039B104D22464FF21801284602F0DAFF29
:1001E00048F20333049305940223069304A90A48B2
:1001F00002F0C2FE4FF21803049301230593069404
:100200000323079304A9284602F0B6FE09B030BDC7
:1002100000100240000C01400008014008B500F049
:1002200051F9012004F01EFDFBE708B50368B3F1A6
:10023000804F00D008BD02F0ADFAFBE772B6FEE7D2
:1002400008B50A480A4B03600A4B436000238360E9
:10025000C3604FF48042026143618361C361036202
:1002600005F068FD00B908BDFFF7E8FFD8010020E0
:1002700000540040801A060000B595B028220021E5
:100280000DEB020005F059FE00230593069307933A
:1002900008930993019302930393049301220A9212
:1002A0004FF480330B930E920222119212934FF46B
:1002B000E01313930AA802F0A9FAC0B90F2305931B
:1002C00002210691002307934FF48062089209935C
:1002D00005A802F0DBFC60B910230193002304930E
:1002E00001A802F0BDFD30B915B05DF804FBFFF7C1
:1002F000A5FFFFF7A3FFFFF7A1FF000000B583B044
:1003000002F036FAFFF7B8FFFFF740FF00F0DAF827
:10031000FFF796FF04F0E6FB094A0021094804F0C4
:1003200029FC094B186000230193052200926422E6
:100330000649074803F082FE04F0F6FBFEE700BF23
:10034000386100081D020008D40100202061000867
:1003500051010008FEE7FEE7FEE7FEE7FEE7704713
:1003600008B5024800F0EBFF08BD00BF4C070020B5
:1003700008B5024802F0B2FF08BD00BF2C02002001
:1003800000B583B00D4B9A6942F001029A619A69F7
:1003900002F001020092009ADA6942F08052DA61BA
:1003A000DB6903F080530193019B00220F216FF062
:1003B000010002F03BFF03B05DF804FB00100240B7
:1003C00010B586B00023029303930493059302684B
:1003D000114B9A4201D006B010BD104CA36943F0F6
:1003E0000803A361A36903F008030093009BC023E3
:1003F0000293122303930323059302A9084802F0F2
:10040000BBFDE36943F40013E361E36903F4001304
:100410000193019BDFE700BF005400400010024041
:10042000000C014030B589B00446224BDA6942F035
:100430000102DA61DB6903F001030193019B02A968
:1004400003A802F0EFFC069BD3B902F0DBFC0346E5
:10045000194AA2FB03239B0C013B18484FF0804232
:10046000026040F2E732C2604360002303618360B0
:10047000836103F02BF8054630B1284609B030BD42
:1004800002F0C0FC4300E3E70C4802F0EFFE054633
:100490000028F2D11C2002F0D9FE0F2C01D9012531
:1004A000EBE7002221461C2002F0C0FE044B1C603A
:1004B000E3E700BF0010024083DE1B432C02002054
:1004C0005400002008B500220B490C4804F08AFEB5
:1004D00048B90B49094804F09CFE38B9074804F0B4
:1004E0009FFE30B908BDFFF7A9FEF2E7FFF7A6FEB1
:1004F000F4E7FFF7A3FEF5E73400002074020020C4
:100500002401002012230B800048704720000020A7
:1005100004230B80004870471C00002000239342F6
:100520001ED200B510E00CF1370C01F813C0000129
:100530004FEA430C0CF1010C4FF0000E01F80CE0F7
:100540000133DBB2934209D24FEA107CB0F1204F65
:10055000E9D20CF1300C01F813C0E8E75DF804FBB8
:100560007047000038B50B4BD3F8E807D3F8EC47D9
:10057000D3F8F037C01800D138BD074D08222946FE
:10058000FFF7CCFF042205F110012046FFF7C6FF5C
:10059000F2E700BF00F0FF1F0200002008B51A2399
:1005A0000B80FFF7DFFF014808BD00BF00000020FF
:1005B00008B50A4628B90549054805F088FA0348F0
:1005C00008BD0249024805F082FAF8E73805002024
:1005D0005C61000810B50A46034C2146034805F04B
:1005E00076FA204610BD00BF380500206C61000877
:1005F00008B50A4628B90549054805F068FA0348D0
:1006000008BD0249024805F062FAF8E73805002003
:100610008061000808B50A4628B90549054805F073
:1006200056FA034808BD0249024805F050FAF8E7B7
:10063000380500208C610008022805D8DFE800F0AA
:1006400005040200012070470220704702680E4B2B
:100650009A4200D0704700B583B003F5DA33DA6907
:1006600042F40002DA61DB6903F400030193019BA9
:1006700000220521142002F0D9FD142002F0E6FD2D
:1006800003B05DF804FB00BF005C004008B500F556
:100690002C71D0F8E80204F0DBFD08BD08B501EBD1
:1006A000810300EBC303D3F87C21D0F8E80204F007
:1006B000FCFD08BD08B501EB810300EBC303DA6B59
:1006C000D0F8E80204F037FE08BD08B5D0F8E8021B
:1006D00004F0D8FE08BD10B504468368022B09D18A
:1006E0000121D4F8E80204F0B6FED4F8E80204F0E0
:1006F0008AFE10BDFFF7A2FDF2E7000010B5044628
:10070000D0F8E80204F0AAFEA36923B1024A1369F3
:1007100043F00603136110BD00ED00E008B5D0F80A
:10072000E80204F0A4FE08BD10B504461648C0F85F
:10073000E842C4F8C002154B03600823436002235B
:10074000836000238361C361036200F00FF9B8B9CD
:10075000182300221146D4F8C00201F00FF85823E4
:1007600000228021D4F8C00201F008F84FF4807311
:1007700000228121D4F8C00201F000F8002010BD51
:10078000FFF75CFDE4E700BF4C070020005C004081
:1007900008B5D0F8C00200F075F9FFF74DFF08BDAD
:1007A00008B594461A466346D0F8C00200F0B1FE80
:1007B000FFF742FF08BD08B5D0F8C00200F0EBFE1D
:1007C000FFF73AFF08BD08B5D0F8C00200F05FFFA0
:1007D000FFF732FF08BD08B5D0F8C00200F093FF64
:1007E000FFF72AFF08BDD0F8C03211F0800F08D102
:1007F00001F07F0101EB810103EBC10393F86A0172
:10080000704701F07F01013101EB810103EBC1036E
:100810009878704708B5D0F8C00200F07CFDFFF76B
:100820000BFF08BD08B5D0F8C00200F008FFFFF7C5
:1008300003FF08BD08B5D0F8C00200F0DEFEFFF7E8
:10084000FBFE08BD0048704738070020704770471E
:1008500038B512F4804F44D00468B4F850309BB2DD
:1008600091F800C003EBCC03023304EB4304B4F86B
:100870000044C4F309048B69A34228D31B1B8B617A
:100880008B697BB9056835F82C309BB223F4804323
:1008900023F0700383F4005343F4004343F08003D8
:1008A00025F82C3012F0400F0ED002680D7832F887
:1008B00025309BB223F4E04323F0700343F400435C
:1008C00043F0C00322F8253024B9204638BD002368
:1008D0008B61D5E723460A894969006801F030FF3A
:1008E000F3E70468B4F850309BB291F800C003EB12
:1008F000CC03063304EB4304B4F80044C4F3090406
:100900008B69A3422FD31B1B8B618B697BB9056855
:1009100035F82C309BB223F4804323F0700383F42A
:10092000005343F4004343F0800325F82C3012F0C9
:10093000400F0FD1026891F800C032F82C309BB202
:1009400023F4E04323F0700343F4004343F0C00377
:1009500022F82C30002CB8D023464A894969006817
:1009600001F0EEFEB1E700238B61CEE770B586B0F3
:10097000002800F08580044690F8A932EBB10323EB
:1009800084F8A932206800F025FF254655F8106B41
:10099000EC460FCDACE80F002B68CCF80030231DDF
:1009A0000ECB304600F006FF054658B1022384F80E
:1009B000A9320125284606B070BD80F8A832FFF79D
:1009C00045FEDCE70021206800F00EFF2B461AE010
:1009D0005A1C02EB820104EBC1010120487002EBBA
:1009E000820104F8313003EB830104EBC101CB86B3
:1009F00002EB820C04EBCC0C00208CF80300886323
:100A0000C8630864D3B261688B42E1D316E005EB9A
:100A1000850304EBC303002283F8692183F868513E
:100A200083F86B21C3F87821C3F87C2105EB85039B
:100A300004EBC303C3F880210135EDB2A942E6D827
:100A4000254655F8106BEC460FCDACE80F002B682F
:100A5000CCF80030231D0ECB304600F0C7FE054613
:100A600020B1022384F8A9320125A3E7002384F8EA
:100A70002430012384F8A932206801F0EDF999E7C8
:100A8000012597E738B590F8A832012B11D004461C
:100A9000012580F8A852006800F093FE2946204600
:100AA000FFF7D5FE206801F0D5F9002084F8A802F0
:100AB00038BD0220FCE770B505460C46164612F01C
:100AC000400F00F00D810268B2F850309BB20978F7
:100AD00003EBC103023302EB4302B2F80024C2F37A
:100AE0000902A369934252D99B1AA361A369002BFF
:100AF0006AD16378002B4DD12B68B3F8502092B2A5
:100B0000134403EB0113B3F8042492B222F4F84225
:100B100092B2A3F80424B3F804246FEA42426FEAC5
:100B2000524292B2A3F804242B686278002A3ED184
:100B3000B3F8502092B21344227803EB0213B3F8B7
:100B40000C2492B222F4F84292B2A3F80C24B3F827
:100B50000C246FEA42426FEA524292B2A3F80C248C
:100B600021782846FFF7A6FD16F4804F41D02A6869
:100B7000217832F821309BB223F4E04323F0700354
:100B800043F4404343F0800322F8213031E0002356
:100B9000A361ABE7012BC7D12B68B3F8502092B209
:100BA000134403EB01130022A3F80424BCE7012A39
:100BB000D6D1B3F8502092B21344227803EB02133B
:100BC0000022A3F80C24CBE716F4804F0DD0286840
:100BD00030F821309BB223F4E04323F0700343F458
:100BE000404343F0800320F8213094F82430012B57
:100BF00012D02A68217832F821309BB223F4E043E6
:100C000023F0400383F0300343F4004343F08003B8
:100C100022F82130002070BD636913446361E369E9
:100C20001344E361216A236999421FD3C91A2162DF
:100C30006278002A3FD12A68B2F8501089B20A447B
:100C4000217802EB0112EBB9B2F8041489B221F455
:100C5000F84189B2A2F80414B2F804146FEA4141D1
:100C60006FEA514189B2A2F8041426E021B90023A9
:100C700084F824301346DBE7002384F82430236211
:100C80000B46D5E73E2B09D8590813F0010F00D0C9
:100C90000131890289B2A2F804140EE0590913F057
:100CA0001F0F00D101396FEAC1616FEA514189B26A
:100CB000A2F8041401E0012A06D09BB222896169DE
:100CC000286801F0D1F894E72A68B2F8501089B288
:100CD0000A44217802EB011299B2A2F80414ECE75D
:100CE0000268B2F850309BB2097803EBC1030633B7
:100CF00002EB4302B2F80024C2F30902A369934253
:100D000053D39B1AA361A369002B6BD16378002B8B
:100D10004ED12B68B3F8502092B2134403EB011369
:100D2000B3F8042492B222F4F84292B2A3F8042455
:100D3000B3F804246FEA42426FEA524292B2A3F837
:100D400004242B686278002A3FD1B3F8502092B275
:100D50001344227803EB0213B3F80C2492B222F46A
:100D6000F84292B2A3F80C24B3F80C246FEA424282
:100D70006FEA524292B2A3F80C2421782846FFF77A
:100D800099FC16F4804F7FF434AF2A68217832F84A
:100D900021309BB223F4E04323F0700343F440433B
:100DA00043F0800322F8213023E70023A361AAE760
:100DB000012BC6D12B68B3F8502092B2134403EB39
:100DC00001130022A3F80424BBE7012AD5D1B3F80C
:100DD000502092B21344227803EB02130022A3F8AE
:100DE0000C24CAE716F4804F0DD1286830F8213062
:100DF0009BB223F4E04323F0700343F4404343F0F9
:100E0000800320F8213094F82430012B7FF4F1AED8
:100E1000636913446361E3691344E361216A2369ED
:100E200099421FD3C91A21622A68617800293ED1EC
:100E3000B2F8501089B20A44217802EB0112EBB9E2
:100E4000B2F80C1489B221F4F84189B2A2F80C145A
:100E5000B2F80C146FEA41416FEA514189B2A2F82D
:100E60000C1426E021B9002384F824301346DBE774
:100E70000023236284F824300B46D5E73E2B09D8A3
:100E8000590813F0010F00D00131890289B2A2F88C
:100E90000C140EE0590913F01F0F00D101396FEA4D
:100EA000C1616FEA514189B2A2F80C1401E0012935
:100EB00006D09BB262896169286800F0D5FF98E688
:100EC000B2F8501089B20A44217802EB011299B2AB
:100ED000A2F80C14EDE72DE9F04105462868B0F8BA
:100EE000443013F4004F00F01382B0F84440A3B232
:100EF00014F00F0440F0D88013F0100F61D0038875
:100F00009AB213F4006F40F0938012F4004FE5D0D2
:100F1000038823F070031B051B0D43F0800303803F
:100F20002868B0F850309BB295F8682103EBC203F3
:100F3000063300EB4303B3F80034C3F30903C5F8E9
:100F400084318BB1D5F87C1171B1B5F86E2101F007
:100F5000F7FBD5F87C31D5F884211344C5F87C31F2
:100F600000212846FFF79AFB2B681A8812F4006FBD
:100F7000B4D1B3F8502092B21344D5F87821002AA6
:100F800079D1B3F80C2492B222F4F84292B2A3F8C9
:100F90000C24B3F80C246FEA42426FEA524292B238
:100FA000A3F80C242A6813889BB223F4804323F00F
:100FB000700383F4405343F4004343F080031380F1
:100FC0008CE703889BB223F4E14323F070036FEABC
:100FD00043436FEA53439BB203802A68B2F8503010
:100FE0009BB295F8281003EBC103023302EB4302D6
:100FF000B2F80034C3F309036B64EA6B1A44EA6382
:1010000000212846FFF756FB95F82430002B3FF4CB
:1010100065AF2B6C002B7FF461AF95F824302A6804
:1010200043F08003A2F84C30002385F8243055E7C4
:10103000B0F850309BB295F8682103EBC203063339
:1010400000EB4303B3F80034C3F30903C5F884315C
:10105000B5F86E2105F52C7101F072FB2A68138832
:1010600023F070031B051B0D43F0800313802846FB
:10107000FFF70CFB32E73E2A09D8510812F0010FA6
:1010800000D001318A0292B2A3F80C248AE75109F8
:1010900012F01F0F00D101396FEAC1626FEA5242AC
:1010A00092B2A3F80C247DE730F824309EB213F4FA
:1010B000004F4FD116F0800F3FF410AF621C02EBCF
:1010C000820105EBC101286830F824309BB223F47B
:1010D000E14323F070036FEA43436FEA53439BB24B
:1010E00020F82430CB78032B07D033B1022B40F00B
:1010F0000A8116F4807F40F006812868B0F85030ED
:101100009BB2621C02EB820215F8326003EBC6034D
:10111000023300EB4303B3F80034C3F3090304EBD9
:10112000840205EBC202126C9A4240F2D48004EBB6
:10113000840705EBC707D21A3A6404EB840205EB77
:10114000C202126C002A40F0CD8031462846FFF7DB
:10115000B1FAC3E630F8243023F070031B051B0DF1
:1011600043F0800320F8243004EB8401C90001F52A
:10117000B47105EB010804EB840305EBC30393F89A
:101180007431002B42D12868B0F850309BB204EB88
:10119000840205EBC20292F8682103EBC203063316
:1011A00000EB4303B3F80074C7F3090717BB04EB64
:1011B000840305EBC303D3F884213A44C3F88421A4
:1011C000D3F87C213A44C3F87C21D3F880313BB179
:1011D00004EB840305EBC303D3F878319F4275D247
:1011E00004EB840305EBC30393F868112846FFF76B
:1011F00055FA5FE704EB840105EBC1013B46B1F80A
:101200006E21D1F87C1101F09BFAD0E704EB840346
:1012100005EBC30393F86B31022B35D0296804EB3F
:10122000840205EBC20292F8680131F820309BB2CB
:1012300023F4E04323F0700343F4004343F0C0037E
:1012400021F82030286892F8682130F8223013F411
:10125000804F20D0B0F850309BB203EBC203023372
:1012600000EB4303B3F80074C7F30907002F9ED0C7
:1012700004EB840105EBC1013B46B1F87021D1F8C4
:101280007C1101F05DFA92E7324641462846FFF7AD
:10129000DFFA07468BE7B0F850309BB203EBC2038E
:1012A000063300EB4303B3F80074C7F30907002FBC
:1012B0003FF47DAF04EB840105EBC1013B46B1F87F
:1012C0007221D1F87C1101F03BFA70E741462868A1
:1012D00000F0DDFDEEE604EB840205EBC202002720
:1012E00017642AE704EB840205EBC202D66B1E44A6
:1012F000D663526C04EB840405EBC40413446364AA
:1013000000F0C5FDEAE532462846FFF7D4FBE5E5E7
:101310000020BDE8F08190F8A832012B0DD010B567
:101320000446012380F8A83280F82410006800F0F9
:101330008BFD002084F8A80210BD0220704710B574
:1013400084B00446006800F089FD10F4004F47D1D6
:10135000206800F083FD10F4806F45D1206800F014
:101360007DFD10F4804F08D02268B2F844309BB263
:1013700023F480439BB2A2F84430206800F06EFD55
:1013800010F4005F08D02268B2F844309BB223F416
:1013900000539BB2A2F84430206800F05FFD10F4C7
:1013A000805F32D1206800F059FD10F4006F78D1D1
:1013B000206800F053FD10F4007F40F09D8020680D
:1013C00000F04CFD10F4807F08D02268B2F8443061
:1013D0009BB223F480739BB2A2F8443004B010BDDA
:1013E0002046FFF778FDB3E72268B2F844309BB29D
:1013F00023F480639BB2A2F844302046FFF76BF9D8
:1014000000212046FFF787FFA8E72268B2F84030A6
:101410009BB223F004039BB2A2F840302268B2F8DA
:1014200040309BB223F008039BB2A2F84030204624
:10143000FFF774F92268B2F844309BB223F480536A
:101440009BB2A2F84430ADE7226832F8231004AA18
:1014500002EB430222F8101C0133DBB2072BF3D955
:101460002268B2F840309BB243F00103A2F840304A
:101470002268B2F840309BB223F001039BB2A2F87D
:1014800040302368B3F8442012F4806FF9D0B3F8E9
:10149000442092B222F4806292B2A3F84420002346
:1014A0000BE00023DAE7226804A901EB430131F8DD
:1014B000101C22F823100133DBB2072BF3D922686A
:1014C000B2F840309BB243F00803A2F840302268E3
:1014D000B2F844309BB223F400639BB2A2F84430CC
:1014E0002268B2F840309BB243F00403A2F84030C7
:1014F0002046FFF703F95BE72268B2F844309BB25D
:1015000023F400739BB2A2F844302046FFF7DDF8C5
:1015100055E710B504468C4611F0800F2AD101F032
:10152000070000EB8001C90001F5B47E04EB0E0159
:1015300000EB800004EBC0004FF0000E80F869E182
:101540000CF0070C81F800C00A61CB704A780AB130
:10155000A1F80EC0022B19D094F8A832012B18D094
:10156000012384F8A832206800F051F9002084F8A3
:10157000A80210BD01F00700013000EB800104EB70
:10158000C1014FF0010E81F801E0D9E700230B7192
:10159000E2E70220EDE710B504460B4611F0800F9C
:1015A0001FD101F0070202EB8201C90001F5B471FD
:1015B000014402EB820200EBC202002082F86901C2
:1015C00003F007030B7094F8A832012B13D001230A
:1015D00084F8A832206800F0D6FA002084F8A80227
:1015E00010BD01F00702013202EB820100EBC101E4
:1015F00001204870E4E70220F2E710B501F007048B
:1016000004EB8401C90001F5B471014404EB840CBE
:1016100000EBCC0CCCF87C21CCF880310023CCF84A
:1016200084318CF869318CF8684124B9006800F085
:101630002EFC002010BD006800F029FCF9E710B571
:1016400001F0070404F1010C0CEB8C0100EBC1016B
:1016500004EB840E00EBCE0ECEF83C20CEF84030EA
:1016600001228EF84C20CEF848300023CEF84430CA
:101670004A700CEB8C0C00F83C4024B9006800F078
:1016800006FC002010BD006800F001FCF9E738B549
:1016900001F007054268954231D804460B4611F027
:1016A000800F1ED101EB8101C90001F5B471014425
:1016B00003EB830300EBC303002283F869210123BA
:1016C0008B700D7094F8A832012B1AD0012384F886
:1016D000A832206800F042FB5DB1002084F8A80227
:1016E00038BD6B1C03EB830100EBC10101224A7082
:1016F000E5E704F52C71206800F0B4FBEDE701206C
:10170000EEE70220ECE70B4601F00F014268914240
:1017100030D810B5044613F0800F21D103F0070232
:1017200002EB8201C90001F5B471014402EB8202AF
:1017300000EBC202002082F8690100228A7003F0E7
:1017400007030B7094F8A832012B15D0012384F8FD
:10175000A832206800F027FB002084F8A80210BD02
:1017600003F00702013202EB820100EBC10101200C
:101770004870E2E7012070470220F0E711F0800F87
:101780000BD001F00701013101EB810100EBC10039
:1017900052B90273C3800020704701EB8101C90078
:1017A00001F5B4710844F3E70122027303811B0CB5
:1017B0004381F0E784B001A880E80E00002004B067
:1017C000704703460020A3F844004FF43F42A3F8BB
:1017D00040207047B0F8403023F47C535B045B0C2E
:1017E000A0F84030002070470020704784B0844645
:1017F00001A880E80E000123ACF840300020ACF8CE
:101800004000ACF84400ACF8500004B0704710B58C
:10181000034691F800C030F82C2092B222F4EC423A
:1018200022F0700292B2C878032861D8DFE800F095
:10183000555C0258002048F2800E42EA0E0223F85E
:101840002C2091F800C033F82C2092B222F4E04210
:1018500022F0700242EA0C0242EA0E0223F82C2027
:101860000A7B002A40F0C4804A78002A51D0B3F89D
:10187000502092B21A440C7802EB0412B1F806C060
:101880004FEA5C0C4FEA4C0CA2F800C40C7833F819
:10189000242012F0400F0CD033F8242092B222F40E
:1018A000E04222F0700242F4004242F0C00223F80B
:1018B0002420CA78012A1DD0097833F8212092B259
:1018C00022F4E04222F0400282F0200242F4004280
:1018D00042F0800223F821206AE042F40072AAE775
:1018E00042F4C0620020A6E742F480620020A2E732
:1018F0000120A0E7097833F8212092B222F4E042D7
:1019000022F0400242F4004242F0800223F82120FB
:101910004EE0B3F8502092B21A440C7802EB041255
:10192000B1F806C04FEA5C0C4FEA4C0CA2F808C4B0
:10193000B3F8502092B21A440C7802EB04120C69EE
:10194000BCBBB2F80CC41FFA8CFC2CF4F84C1FFA88
:101950008CFCA2F80CC4B2F80CC46FEA4C4C6FEAD1
:101960005C4C1FFA8CFCA2F80CC40C7833F82420D1
:1019700012F4804F0CD033F8242092B222F4E042CB
:1019800022F0700242F4404242F0800223F8242008
:10199000097833F8212092B222F4804222F07002BA
:1019A00082F4405242F4004242F0800223F82120A7
:1019B00010BD3E2C0DD84FEA540C14F0010F01D08D
:1019C0000CF1010C4FEA8C2C1FFA8CFCA2F80CC411
:1019D000CBE74FEA541C14F01F0F01D10CF1FF3C70
:1019E0006FEACC646FEA5444A4B2A2F80C44BCE79A
:1019F00091F800C033F82C2092B222F4E04222F099
:101A0000700242F4014242F0800223F82C20B3F825
:101A1000502092B21A4491F800C002EB0C12B1F8B7
:101A200008C04FEA5C0C4FEA4C0CA2F800C4B3F8B3
:101A3000502092B21A4491F800C002EB0C12B1F897
:101A40000AC04FEA5C0C4FEA4C0CA2F808C44A7872
:101A5000002A41D10C7833F8242012F4804F0CD0A6
:101A600033F8242092B222F4E04222F0700242F4D1
:101A7000404242F0800223F824200C7833F82420DE
:101A800012F0400F0CD033F8242092B222F4E0423E
:101A900022F0700242F4004242F0C00223F82420F7
:101AA00091F800C033F82C2092B222F4804222F048
:101AB000700282F4405248F28004224323F82C2022
:101AC000097833F8212092B222F4E04222F0400259
:101AD000224323F821206BE70C7833F8242012F4FA
:101AE000804F0CD033F8242092B222F4E04222F04E
:101AF000700242F4404242F0800223F824200C7825
:101B000033F8242012F0400F0CD033F8242092B286
:101B100022F4E04222F0700242F4004242F0C0029D
:101B200023F82420CA78012A1ED00C7833F8242008
:101B300092B222F4E04222F0400282F0200242F40B
:101B4000004242F0800223F82420097833F8212053
:101B500092B222F4804222F0700242F4004242F03B
:101B6000800223F8212023E70C7833F8242092B256
:101B700022F4E04222F0400242F4004242F08002AD
:101B800023F82420E1E70B7B002B46D14B7813B3DD
:101B90000A7830F8223013F0400F0CD030F82230A1
:101BA0009BB223F4E04323F0700343F4004343F07B
:101BB000C00320F822300A7830F822309BB223F498
:101BC000E04323F0400343F4004343F0800320F854
:101BD0002230002070470A7830F8223013F4804F0A
:101BE0000CD030F822309BB223F4E04323F0700392
:101BF00043F4404343F0800320F822300A7830F861
:101C000022309BB223F4804323F0700343F400435B
:101C100043F0800320F82230DBE74B78002B4ED1D5
:101C20000A7830F8223013F4804F0CD030F822308C
:101C30009BB223F4E04323F0700343F4404343F0AA
:101C4000800320F822300A7830F8223013F0400F59
:101C50000CD030F822309BB223F4E04323F0700321
:101C600043F4004343F0C00320F822300A7830F8F0
:101C700022309BB223F4E04323F0700343F400438B
:101C800043F0C00320F822300A7830F822309BB2AB
:101C900023F4804323F0700348F2800C43EA0C03E2
:101CA00020F822300A7830F822309BB223F4E04347
:101CB00023F0400343EA0C0320F8223089E70A7836
:101CC00030F8223013F4804F0CD030F822309BB221
:101CD00023F4E04323F0700343F4404343F08003D4
:101CE00020F822300A7830F8223013F0400F0CD060
:101CF00030F822309BB223F4E04323F0700343F426
:101D0000004343F0C00320F822300A7830F8223034
:101D10009BB223F4E04323F0700343F4404343F0C9
:101D2000800320F822300A7830F822309BB223F466
:101D3000E04323F0400348F2800C43EA0C0320F810
:101D400022300A7830F822309BB223F4804323F00B
:101D5000700343EA0C0320F822303AE74B788BB14A
:101D60000A7830F822309BB223F4E04323F040039A
:101D700083F0100343F4004343F0800320F8223043
:101D8000002070470A7830F822309BB223F4804359
:101D900023F0700383F4805343F4004343F0800343
:101DA00020F82230ECE70B7B002B4BD14B7833B380
:101DB0000A7830F8223013F0400F0CD030F822307F
:101DC0009BB223F4E04323F0700343F4004343F059
:101DD000C00320F82230CB78012B33D00A7830F8BA
:101DE00022309BB223F4E04323F0400383F020032E
:101DF00043F4004343F0800320F8223022E00A78C5
:101E000030F8223013F4804F0CD030F822309BB2DF
:101E100023F4E04323F0700343F4404343F0800392
:101E200020F822300A7830F822309BB223F4804325
:101E300023F0700383F4405343F4004343F08003E2
:101E400020F822300020704711B98023A0F84C30D0
:101E5000002070470020704700207047B0F8440011
:101E600080B270470020704701335B0800EB4200EE
:101E700000F5806008E00A7891F801C042EA0C227F
:101E800020F8042B0231013B002BF4D1704770B5D0
:101E900005460C464B78012B37D00A7B002A40F0D0
:101EA00026838B690A69934240F204839B1A8B61F3
:101EB000B5F850309BB22B44217803EB0113002A74
:101EC00040F0FC82B3F80C2492B222F4F84292B2B1
:101ED000A3F80C24B3F80C246FEA42426FEA524292
:101EE00092B2A3F80C24227835F822309BB223F466
:101EF000804323F0700383F4405343F4004343F0E2
:101F0000800325F82230002070BD8E690A69964250
:101F100000D91646237B002B39D0E378022B58D00A
:101F2000227835F822309BB223F4E04323F070038B
:101F300043F4014343F0800325F82230236A9B1BBE
:101F40002362237835F8232012F0400F00F0268218
:101F50006278002A40F0CA81B5F8502092B22A4433
:101F600002EB0313002E40F0A881B3F80C2492B2C8
:101F700022F4F84292B2A3F80C24B3F80C246FEACE
:101F800042426FEA524292B2A3F80C24B0E1B6B2D8
:101F90003346E28861692846FFF766FFB5F850309E
:101FA0009BB22B44227803EB0213A3F8046422783B
:101FB00035F822309BB223F4E04323F0400383F052
:101FC000300343F4004343F0800325F8223000201F
:101FD0009AE7236A9A4280F05281227835F82230BB
:101FE0009BB223F4E04323F0700343F4014343F036
:101FF000800325F82230236A9B1B2362237835F85F
:10200000232012F0400F00F09D8062788ABBB5F863
:10201000502092B22A4402EB03138EB9B3F80C2479
:1020200092B222F4F84292B2A3F80C24B3F80C2432
:102030006FEA42426FEA524292B2A3F80C241AE0CD
:102040003E2E09D8720816F0010F00D0013292021C
:1020500092B2A3F80C240EE0720916F01F0F00D103
:10206000013A6FEAC2626FEA524292B2A3F80C24BC
:1020700001E0012A2BD0B3B2628961692846FFF7DB
:10208000F3FE636933446361236A2269934228D96A
:102090009B1B23626378002B40D1B5F850309BB274
:1020A0002B44227803EB0213FEB9B3F8042492B256
:1020B00022F4F84292B2A3F80424B3F804246FEA9D
:1020C00042426FEA524292B2A3F8042428E0B5F8E3
:1020D000502092B22A4402EB0313B2B2A3F80C24AC
:1020E000C9E7002222621E46D4E73E2E09D87208B4
:1020F00016F0010F00D00132920292B2A3F804242C
:102100000EE0720916F01F0F00D1013A6FEAC262A9
:102110006FEA524292B2A3F8042401E0012B06D0E8
:10212000B3B2228961692846FFF79EFE3FE7B5F802
:1021300050309BB22B44227803EB0213B2B2A3F8C7
:102140000424EDE762788ABBB5F8502092B22A44A5
:1021500002EB03138EB9B3F8042492B222F4F842CE
:1021600092B2A3F80424B3F804246FEA42426FEA5F
:10217000524292B2A3F804241AE03E2E09D8720803
:1021800016F0010F00D00132920292B2A3F804249B
:102190000EE0720916F01F0F00D1013A6FEAC26219
:1021A0006FEA524292B2A3F8042401E0012A2BD034
:1021B000B3B2228961692846FFF756FE636933444A
:1021C0006361236A2269934228D99B1B2362637847
:1021D000002B40D1B5F850309BB22B44227803EB52
:1021E0000213FEB9B3F80C2492B222F4F84292B270
:1021F000A3F80C24B3F80C246FEA42426FEA52426F
:1022000092B2A3F80C2428E0B5F8502092B22A44E8
:1022100002EB0313B2B2A3F80424C9E7002222623E
:102220001E46D4E73E2E09D8720816F0010F00D0E2
:102230000132920292B2A3F80C240EE0720916F059
:102240001F0F00D1013A6FEAC2626FEA524292B2A6
:10225000A3F80C2401E0012B06D0B3B262896169B6
:102260002846FFF701FEA2E6B5F850309BB22B449A
:10227000227803EB0213B2B2A3F80C24EDE7217825
:1022800035F8212092B222F4E24222F0700242F4A8
:10229000004242F0800225F82120B5F8502092B289
:1022A0002A44217802EB01129BB2A2F8043422895D
:1022B00061692846FFF7D8FD79E63E2E09D87208F5
:1022C00016F0010F00D00132920292B2A3F80C2452
:1022D0000EE0720916F01F0F00D1013A6FEAC262D8
:1022E0006FEA524292B2A3F80C2401E0012A26D0F0
:1022F000B3B2628961692846FFF7B6FD636933446A
:102300006361236A2269934223D99B1B2362002EB7
:102310003FF44DAE63786BBBB5F850309BB22B44A5
:10232000227803EB02133E2E17D8720816F0010F25
:1023300000D00132920292B2A3F804241CE0B5F856
:10234000502092B22A4402EB0313B2B2A3F80C2439
:10235000CEE7002222621E46D9E7720916F01F0F4F
:1023600000D1013A6FEAC2626FEA524292B2A3F818
:10237000042401E0012B06D0B3B22289616928460A
:10238000FFF772FD13E6B5F850309BB22B4422786C
:1023900003EB0213B2B2A3F80424EDE762788ABB20
:1023A000B5F8502092B22A4402EB03138EB9B3F869
:1023B000042492B222F4F84292B2A3F80424B3F8AF
:1023C00004246FEA42426FEA524292B2A3F8042414
:1023D0001AE03E2E09D8720816F0010F00D0013223
:1023E000920292B2A3F804240EE0720916F01F0FB5
:1023F00000D1013A6FEAC2626FEA524292B2A3F888
:10240000042401E0012A26D0B3B22289616928465A
:10241000FFF72AFD636933446361236A22699342AB
:1024200023D99B1B2362002E3FF4C1AD63786BBBA5
:10243000B5F850309BB22B44227803EB02133E2EAA
:1024400017D8720816F0010F00D00132920292B232
:10245000A3F80C241CE0B5F8502092B22A4402EBF9
:102460000313B2B2A3F80424CEE7002222621E4670
:10247000D9E7720916F01F0F00D1013A6FEAC26264
:102480006FEA524292B2A3F80C2401E0012B06D06D
:10249000B3B2628961692846FFF7E6FC87E5B5F8C3
:1024A00050309BB22B44227803EB0213B2B2A3F854
:1024B0000C24EDE700228A611A46F9E43E2A09D885
:1024C000510812F0010F00D00131890289B2A3F83E
:1024D0000C1408E5510912F01F0F00D101396FEA01
:1024E000C1616FEA514189B2A3F80C14FBE4CA78C8
:1024F000022A45D0012A40F020818969226991424F
:1025000040F2D480891AA161D3B9B5F850309BB29A
:102510002B44217803EB0113002A40F0CB80B3F861
:10252000041489B221F4F84189B2A3F80414B3F871
:1025300004146FEA41416FEA514189B2A3F80414CF
:102540006378002B40F0EA80B5F850309BB22B4402
:10255000217803EB0113002A40F0C580B3F80C2466
:1025600092B222F4F84292B2A3F80C24B3F80C24ED
:102570006FEA42426FEA524292B2A3F80C24B2E4EC
:10258000CBB9B0F850309BB203440A7803EB021386
:102590000A6972BBB3F8042492B222F4F84292B2F0
:1025A000A3F80424B3F804246FEA42426FEA5242CB
:1025B00092B2A3F804246378002B4CD1B5F85030C4
:1025C0009BB22B44227803EB0213226952BBB3F86F
:1025D0000C2492B222F4F84292B2A3F80C24B3F87D
:1025E0000C246FEA42426FEA524292B2A3F80C24E2
:1025F00033E03E2A09D8510812F0010F00D0013112
:102600008A0292B2A3F80424D5E7510912F01F0FF1
:1026100000D101396FEAC1626FEA524292B2A3F867
:102620000424C8E73E2A09D8510812F0010F00D04F
:1026300001318A0292B2A3F80C240EE0510912F083
:102640001F0F00D101396FEAC1626FEA524292B2A4
:10265000A3F80C2401E0012B1DD0E369002B3FF40B
:1026600042AC227835F8221044F2400303EA01001C
:102670008B4302D000287FF436AC35F822309BB271
:1026800023F4E04323F0700343F4004343F0C0031A
:1026900025F8223027E4B5F850309BB22B4422783D
:1026A00003EB0213228AA3F80C24D6E70022A261CE
:1026B0000A4629E73E2A09D8510812F0010F00D036
:1026C0000131890289B2A3F8041439E7510912F0E3
:1026D0001F0F00D101396FEAC1616FEA514189B220
:1026E000A3F804142CE73E2A0AD8510812F0010F6F
:1026F00000D001318A0292B2A3F80C24FFF7F3BB99
:10270000510912F01F0F00D101396FEAC1626FEA5F
:10271000524292B2A3F80C24FFF7E5BB012B7FF4E1
:10272000E2ABB5F850309BB22B44217803EB011398
:1027300092B2A3F80C24FFF7D6BB0120FFF7E4BB4D
:1027400010B45C0800EB420000F5806007E030F850
:10275000042B0A70C2F307224A700231013C002C9C
:10276000F5D113F0010F01D003880B7010BC704736
:1027700008B5074A136843F010031360032000F004
:1027800043FD0F20FDF74EFEFDF7FAFD002008BDCA
:1027900000200240034A1168034B1B780B4413606E
:1027A000704700BF380A002050000020014B186815
:1027B000704700BF380A002038B50446FFF7F6FF1F
:1027C0000546B4F1FF3F02D0044B1B781C44FFF7D1
:1027D000EDFF401BA042FAD338BD00BF50000020DF
:1027E00082B0084B1B68084AA2FB03235B0A00FB6C
:1027F00003F3019300BF019B5A1E0192002BF9D1F4
:1028000002B0704758000020D34D6210002800F03D
:10281000F18170B582B00446036813F0010F2CD02B
:10282000994B5B6803F00C03042B1DD0964B5B683F
:1028300003F00C03082B12D06368B3F5803F41D03E
:10284000002B55D103F1804303F504331A6822F4B9
:1028500080321A601A6822F480221A6037E08A4BAC
:102860005B6813F4803FE7D0874B1B6813F4003F8D
:1028700003D06368002B00F0BF81236813F0020FC0
:1028800075D0814B5B6813F00C0F5FD07E4B5B689B
:1028900003F00C03082B54D02369002B00F08A802E
:1028A0007A4B01221A60FFF781FF0546764B1B68C1
:1028B00013F0020F75D1FFF779FF401B0228F5D9FD
:1028C00003209EE1704A136843F480331360636809
:1028D00043B3FFF76BFF05466B4B1B6813F4003FD8
:1028E000CBD1FFF763FF401B6428F5D9032088E1B3
:1028F000B3F5A02F09D0644B1A6822F480321A6015
:102900001A6822F480221A60E1E703F18043A3F5FC
:102910003C331A6842F480221A601A6842F480320A
:102920001A60D4E7FFF742FF0546574B1B6813F4C4
:10293000003FA2D0FFF73AFF401B6428F5D90320DF
:102940005FE1514B5B6813F4803FA5D14E4B1B6890
:1029500013F0020F03D02369012B40F04F814A4A44
:10296000136823F0F803616943EAC1031360236825
:1029700013F0080F33D0A369002B5CD0434B012226
:10298000C3F88024FFF712FF05463F4B5B6A13F044
:10299000020F21D1FFF70AFF401B0228F5D90320BF
:1029A0002FE1394A136823F0F803616943EAC10350
:1029B0001360DCE7354B00221A60FFF7F7FE05468F
:1029C000314B1B6813F0020FD1D0FFF7EFFE401B15
:1029D0000228F5D9032014E10120FFF701FF236845
:1029E00013F0040F00F09680274BDB6913F0805F33
:1029F00034D1254BDA6942F08052DA61DB6903F0A9
:102A000080530193019B0125214B1B6813F4807FA8
:102A100026D0E368012B3DD0002B53D103F1804336
:102A200003F504331A6A22F001021A621A6A22F0CC
:102A300004021A6233E0154B0022C3F88024FFF72A
:102A4000B5FE0546104B5B6A13F0020FC7D0FFF7C7
:102A5000ADFE401B0228F5D90320D2E00025D3E7C4
:102A60000B4A136843F480731360FFF79FFE06461A
:102A7000074B1B6813F4807FCBD1FFF797FE801BB9
:102A80006428F5D90320BCE0001002400000424257
:102A9000007000405F4A136A43F001031362E36869
:102AA00033B3FFF783FE06465A4B1B6A13F0020F3F
:102AB0002FD1FFF77BFE801B41F288339842F3D978
:102AC00003209EE0052B09D0524B1A6A22F0010226
:102AD0001A621A6A22F004021A62E0E74D4B1A6A7F
:102AE00042F004021A621A6A42F001021A62D6E740
:102AF000FFF75CFE0646474B1B6A13F0020F08D037
:102B0000FFF754FE801B41F288339842F3D903202B
:102B100077E0E5B9E369002B72D03E4A526802F0D3
:102B20000C02082A56D0022B17D03B4B00221A6603
:102B3000FFF73CFE0446374B1B6813F0007F47D07D
:102B4000FFF734FE001B0228F5D9032059E0314A73
:102B5000D36923F08053D361DCE72F4B00221A6640
:102B6000FFF724FE05462B4B1B6813F0007F06D0B1
:102B7000FFF71CFE401B0228F5D9032041E0236A21
:102B8000B3F5803F1AD023494B6823F47413226AAB
:102B9000606A024313434B601F4B01221A66FFF722
:102BA00005FE04461B4B1B6813F0007F0ED1FFF798
:102BB000FDFD001B0228F5D9032022E0154A5368C9
:102BC00023F40033A1680B435360DCE7002018E0D6
:102BD000002016E0012B16D00E4B5B6803F4803109
:102BE000226A914211D103F47013626A93420ED1AA
:102BF000002006E001207047012002E0012000E0F3
:102C0000002002B070BD0120FBE70120F9E70120A0
:102C1000F7E700BF001002400000424286B0174BA9
:102C20000FCB0DF1180C0CE90F0040F20123ADF8A9
:102C30000430134B5B6803F00C02082A02D01148E1
:102C400006B07047C3F3834218326A4412F8100C7E
:102C500013F4803F0DD00A4B5B68C3F34043183335
:102C60006B4413F8143C074A02FB00F0B0FBF3F08E
:102C7000E6E7054B03FB00F0E2E700BF9C610008BC
:102C80000010024000127A0000093D00002800F008
:102C9000A08070B50D460446524B1B6803F0070335
:102CA0008B420BD24F4A136823F007030B43136088
:102CB000136803F007038B4240F08D80236813F004
:102CC000020F17D013F0040F04D0474A536843F49F
:102CD000E0635360236813F0080F04D0424A53683E
:102CE00043F460535360404A536823F0F003A168F3
:102CF0000B435360236813F0010F31D06368012B3D
:102D000020D0022B25D0384A126812F0020F64D06E
:102D100035494A6822F0030213434B60FFF746FD32
:102D20000646314B5B6803F00C036268B3EB820F1D
:102D300016D0FFF73BFD801B41F288339842F0D953
:102D4000032045E0284A126812F4003FE0D1012038
:102D50003EE0254A126812F0007FD9D1012037E009
:102D6000204B1B6803F00703AB420AD91D4A1368C6
:102D700023F007032B431360136803F00703AB42F0
:102D80002DD1236813F0040F06D0174A536823F49B
:102D9000E063E1680B435360236813F0080F07D02A
:102DA000114A536823F46053216943EAC103536015
:102DB000FFF734FF0C4B5B68C3F303130B4AD35C80
:102DC000D8400B4B18600B4B1868FDF72BFB00200D
:102DD00070BD012070470120FAE70120F8E70120CB
:102DE000F6E700BF0020024000100240B861000872
:102DF0005800002054000020014B1868704700BFA5
:102E00005800002008B5FFF7F7FF044B5B68C3F3D9
:102E10000223034AD35CD84008BD00BF0010024023
:102E2000B06100080F2303600B4B5A6802F00302E5
:102E300042605A6802F0F00282605A6802F4E0626E
:102E4000C2605B68DB0803F4E0630361034B1B684B
:102E500003F007030B60704700100240002002409F
:102E600070B582B00446036813F0010F36D03F4BB3
:102E7000DB6913F0805F49D13C4BDA6942F0805244
:102E8000DA61DB6903F080530193019B0125384B24
:102E90001B6813F4807F3BD0344B1B6A13F44073E0
:102EA00013D0626802F440729A420ED02F4A136A1D
:102EB00023F440702F490126C1F840640026C1F870
:102EC0004064106213F0010F36D1284A136A23F4CC
:102ED000407361680B431362002D3ED1236813F0E9
:102EE000020F06D0214A536823F44043A1680B43E4
:102EF0005360236813F0100F34D01C4A536823F436
:102F00008003E1680B43536000202CE00025BEE7FE
:102F1000174A136843F480731360FFF747FC0646B3
:102F2000134B1B6813F4807FB6D1FFF73FFC801B67
:102F30006428F5D9032016E0FFF738FC06460B4B52
:102F40001B6A13F0020FC0D1FFF730FC801B41F267
:102F500088339842F3D9032005E0D36923F08053E6
:102F6000D361BBE7002002B070BD00BF001002407B
:102F7000007000400000424270B582B00024A446B8
:102F8000A2E07E4DAB4210D007D97D4DAB420CD0B4
:102F900005F58035AB4208D013E0A5F58015AB42AE
:102FA00003D005F57025AB4207D18B68002B55D0B7
:102FB000012B4ED04261082403E0A5F58015AB42F9
:102FC000F3D0BEF1FF0F4BD806464FEA8C023368B0
:102FD0000F25954023EA050304FA02F213433360F8
:102FE0004B6813F0805F6DD0664B9A6942F0010226
:102FF0009A619B6903F001030193019B4FEA9C02D4
:10300000951C614B53F825600CF00305AD000F23B0
:10301000AB4026EA03065D4B984228D003F5806357
:10302000984200F08D8003F58063984200F08A801A
:1030300003F58063984218D0042319E0CC68C0E7F8
:10304000CC680434BDE7CC680834BAE7CC680C34EB
:10305000B7E702610824B4E70024B2E70424B0E72C
:10306000061DACF108029200B1E7032300E0002343
:10307000AB4033430232444D45F822304B6813F4E1
:10308000803F61D0424A136843EA0E0313604B68E5
:1030900013F4003F5ED03E4A536843EA0E03536088
:1030A0004B6813F4801F5BD0394A936843EA0E03E0
:1030B00093604B6813F4001F58D0354AD36843EA35
:1030C0000E03D3600CF1010C0B6833FA0CF253D0F1
:1030D000012202FA0CF203EA020E32EA0303F1D1F2
:1030E0004B68122B3FF64DAF122B3FF66AAF01A58E
:1030F00055F823F0AB2F00083D300008473000089A
:1031000059300008C32F0008C32F0008C32F000840
:10311000C32F0008C32F0008C32F0008C32F0008C7
:10312000C32F0008C32F0008C32F0008C32F0008B7
:10313000C32F0008C32F0008413000084D3000089D
:10314000012395E7022393E7114A136823EA0E034C
:1031500013609CE70E4A536823EA0E0353609FE70F
:103160000B4A936823EA0E039360A2E7084AD368E8
:1031700023EA0E03D360A5E702B070BD0000221061
:103180000000311000100240000001400008014022
:10319000000401400AB101617047090401617047F0
:1031A000002808DB0901C9B200F1604000F5614068
:1031B00080F80013704700F00F000901C9B2014BFD
:1031C0001954704714ED00E000B500F00700C0F19D
:1031D000070CBCF1040F28BF4FF0040C031D062B95
:1031E0000FD9C31E4FF0FF3E0EFA0CF021EA00018A
:1031F00099400EFA03FE22EA0E0241EA02005DF84F
:1032000004FB0023EEE70000074AD36823F4E063E1
:103210001B041B0C000200F4E060034343F0BF6397
:1032200043F40033D360704700ED00E010B504466E
:10323000054BD868C0F30220FFF7C6FF01462046C1
:10324000FFF7AEFF10BD00BF00ED00E0002807DB78
:1032500000F01F02400901239340024A42F8203047
:10326000704700BF00E100E07047000090F83D307B
:10327000DBB2012B27D1022380F83D300268D368EE
:1032800043F00103D3600368114A934210D0B3F1B5
:10329000804F0DD0A2F59432934209D002F580629E
:1032A000934205D01A6842F001021A60002070476C
:1032B0009A6802F00702062A07D01A6842F0010253
:1032C0001A6000207047012070470020704700BF3F
:1032D000002C0140704770477047704710B5044696
:1032E00003681A6912F0020F11D0DA6812F0020FA7
:1032F0000DD06FF002021A610123037703689B6906
:1033000013F0030F70D0FFF7E6FF00232377236845
:103310001A6912F0040F12D0DA6812F0040F0ED0FE
:103320006FF004021A610223237723689B6913F468
:10333000407F5FD02046FFF7CEFF0023237723682E
:103340001A6912F0080F12D0DA6812F0080F0ED0C6
:103350006FF008021A61042323772368DB6913F0F6
:10336000030F4ED02046FFF7B6FF002323772368D4
:103370001A6912F0100F12D0DA6812F0100F0ED086
:103380006FF010021A61082323772368DB6913F4B6
:10339000407F3DD02046FFF79EFF00232377236820
:1033A0001A6912F0010F03D0DA6812F0010F36D15A
:1033B00023681A6912F0800F03D0DA6812F0800FC8
:1033C00034D123681A6912F0400F03D0DA6812F082
:1033D000400F32D123681A6912F0200F03D0DA6847
:1033E00012F0200F30D110BDFFF774FF2046FFF719
:1033F00073FF8AE72046FFF76DFF2046FFF76CFF5B
:103400009BE72046FFF766FF2046FFF765FFACE726
:103410002046FFF75FFF2046FFF75EFFBDE76FF036
:1034200001021A612046FCF700FFC1E76FF080023D
:103430001A61204600F077F8C3E76FF040021A6186
:103440002046FFF74AFFC5E76FF020021A612046C9
:1034500000F068F8C7E7000003681B4A90420AD0F2
:10346000B0F1804F07D0A2F59432904203D002F51C
:103470008062904203D123F070034A681343124ADA
:1034800090420AD0B0F1804F07D0A2F5943290421A
:1034900003D002F58062904203D123F44073CA68DE
:1034A000134323F080034A69134303608B68C362AC
:1034B0000B688362044B984202D00123436170473A
:1034C0000B690363F9E700BF002C014040B310B55E
:1034D000044690F83D30F3B1022384F83D30214694
:1034E00051F8040BFFF7B8FF012384F8463084F845
:1034F0003E3084F83F3084F8403084F8413084F81E
:10350000423084F8433084F8443084F8453084F8FD
:103510003D30002010BD80F83C30FFF7A5FEDBE712
:103520000120704770477047704700F108034360FF
:103530004FF0FF328260C360036100230360704775
:1035400000230361704743684B609A688A6051604A
:1035500099600861036801330360704730B40D68F7
:10356000B5F1FF3F11D000F108031C465B681A68F3
:10357000AA42FAD963684B6099608C606160086107
:1035800003680133036030BC70470469F2E70369E4
:10359000416882688A60416851605A68824206D0F8
:1035A000002202611A68013A1A601868704782683E
:1035B0005A60F5E710B5044601F0FCFCA26BE36B22
:1035C0009A4204D0002401F017FD204610BD0124CA
:1035D000F9E710B5044601F0EDFCA36B23B9012413
:1035E00001F00AFD204610BD0024F9E770B504463D
:1035F0001546866B026C5AB903681BB10020013670
:10360000A66370BD406801F00FF800236360F6E721
:103610006DB9806802F016FDA368226C1344A360A4
:103620006268934219D32368A3602846E7E7C0681D
:1036300002F008FDE368226C51429B1AE3602268A5
:10364000934202D263680B44E360022D01D0002054
:10365000D5E726B1013E0020D1E72846CFE700207C
:10366000CDE708B50346026C62B10846D96811443B
:10367000D960D3F804C0614501D31968D960D9680D
:1036800002F0E0FC08BD38B5054601F093FC95F862
:10369000454064B201E0013C64B2002C0ADD6B6A73
:1036A00043B105F1240000F015FF0028F3D000F02D
:1036B000A5FFF0E7FF2385F8453001F09DFC01F000
:1036C00079FC95F8444064B201E0013C64B2002CFE
:1036D0000ADD2B6943B105F1100000F0FBFE002864
:1036E000F3D000F08BFFF0E7FF2385F8443001F0C2
:1036F00083FC38BD38B5E0B10D46044601F05AFCF4
:103700002368E26B216C01FB023060600020A06343
:10371000A360013A02FB0133E360FF2384F84430E5
:1037200084F84530FDB9236963B901F065FC0120D7
:1037300038BD4FF0500383F31188BFF36F8FBFF391
:103740004F8FFEE704F1100000F0C4FE0028ECD01B
:103750004FF0E0234FF08052C3F8042DBFF34F8F9A
:10376000BFF36F8FE1E704F11000FFF7DEFE04F115
:103770002400FFF7DAFED8E738B51D46049C0B4657
:1037800049B92460E063236401212046FFF7B2FFBA
:1037900084F84C5038BD2260F4E740B94FF0500334
:1037A00083F31188BFF36F8FBFF34F8FFEE710B520
:1037B00084B01C46844653B192B189B94FF050038E
:1037C00083F31188BFF36F8FBFF34F8FFEE74FF086
:1037D000500383F31188BFF36F8FBFF34F8FFEE762
:1037E0006AB150230393039B502B13D04FF0500327
:1037F00083F31188BFF36F8FBFF34F8FFEE700296C
:10380000EFD04FF0500383F31188BFF36F8FBFF3F6
:103810004F8FFEE7012384F8463000949DF818305E
:103820006046FFF7A9FF204604B010BDF0B585B093
:10383000019288B10F461D460446B1B1022D20D138
:10384000E36B012B1DD04FF0500383F31188BFF3BE
:103850006F8FBFF34F8FFEE74FF0500383F3118854
:10386000BFF36F8FBFF34F8FFEE7036C002BE5D0E4
:103870004FF0500383F31188BFF36F8FBFF34F8F67
:10388000FEE700F0C1FE064658B9019B002B48D068
:103890004FF0500383F31188BFF36F8FBFF34F8F47
:1038A000FEE700263DE02A4639462046FFF79EFE09
:1038B000636A7BB948B14FF0E0234FF08052C3F800
:1038C000042DBFF34F8FBFF36F8F01F095FB0120E5
:1038D00005B0F0BD04F1240000F0FCFD0028F4D098
:1038E0004FF0E0234FF08052C3F8042DBFF34F8F09
:1038F000BFF36F8FE9E701F07FFB0020E8E702A844
:1039000000F02EFE012619E0002384F8443021E067
:10391000002384F8453023E02046FFF7B4FE00F092
:10392000B1FC01F047FBA26BE36B9A42BBD3022DC3
:10393000B9D0019B002BDED0002EE0D001F05CFB63
:1039400000F006FC01F036FB94F8442052B2B2F1CC
:10395000FF3FD9D094F8452052B2B2F1FF3FD7D003
:1039600001F04AFB01A902A800F006FED8B92046E2
:10397000FFF720FE0028CFD0019904F1100000F0DD
:1039800075FD2046FFF77FFE00F07CFC0028C8D1C3
:103990004FF0E0234FF08052C3F8042DBFF34F8F58
:1039A000BFF36F8FBDE72046FFF76DFE00F06AFCA6
:1039B00000208DE72DE9F84390B10F4616461C46CE
:1039C0000546B1B1022C20D1EB6B012B1DD04FF07D
:1039D000500383F31188BFF36F8FBFF34F8FFEE760
:1039E0004FF0500383F31188BFF36F8FBFF34F8FF6
:1039F000FEE7036C002BE5D04FF0500383F31188F2
:103A0000BFF36F8FBFF34F8FFEE701F0BDFBEFF306
:103A100011884FF0500383F31188BFF36F8FBFF30A
:103A20004F8FAA6BEB6B9A4206D3022C04D0002076
:103A300088F31188BDE8F88395F845904FFA89F925
:103A4000224639462846FFF7D1FDB9F1FF3F06D09F
:103A500009F101035BB285F845300120E8E76B6AA4
:103A60000BB90120E4E705F1240000F033FD18B1A3
:103A700026B101203060DBE70120D9E70120D7E73C
:103A8000F0B585B0019290B10F460446C1B100F087
:103A9000BBFD064600BB019B002B5ED04FF05003E0
:103AA00083F31188BFF36F8FBFF34F8FFEE74FF0A3
:103AB000500383F31188BFF36F8FBFF34F8FFEE77F
:103AC000036C002BE3D04FF0500383F31188BFF356
:103AD0006F8FBFF34F8FFEE700263EE0394620464A
:103AE000FFF7BFFD013DA563236923B901F084FA07
:103AF000012005B0F0BD04F1100000F0EBFC00283F
:103B0000F4D04FF0E0234FF08052C3F8042DBFF300
:103B10004F8FBFF36F8FE9E701F06EFA0020E8E7FF
:103B200002A800F01DFD012621E0002384F84430A6
:103B300029E0002384F845302BE02046FFF7A3FD61
:103B400000F0A0FB09E02046FFF79DFD00F09AFB86
:103B50002046FFF73EFD00283FD101F02BFAA56B70
:103B6000002DBBD1019B002BD6D0002ED8D001F068
:103B700043FA00F0EDFA01F01DFA94F844305BB21C
:103B8000B3F1FF3FD1D094F845305BB2B3F1FF3FC2
:103B9000CFD001F031FA01A902A800F0EDFC002815
:103BA000D1D12046FFF715FD0028C6D0019904F1B8
:103BB000240000F05BFC2046FFF765FD00F062FB8F
:103BC0000028CAD14FF0E0234FF08052C3F8042DF3
:103BD000BFF34F8FBFF36F8FBFE7002089E700006F
:103BE0000023072B0CD8074A52F833200AB10133BF
:103BF000F7E7044A42F8331002EBC3025060704703
:103C0000704700BF3C0A002070B504460D461646BA
:103C100001F0D0F994F844305BB2B3F1FF3F0DD01E
:103C200094F845305BB2B3F1FF3F0BD001F0E4F9FB
:103C3000A36B5BB12046FFF726FD70BD002384F81F
:103C40004430EDE7002384F84530EFE7324629465B
:103C500004F1240000F022FCECE70000084B1B6894
:103C60001B6823B9074B4FF0FF321A607047044BB3
:103C70001B68DB68DB685A68024B1A60704700BF3C
:103C8000EC0A0020840A00202DE9F04780460D460A
:103C900017469946089EDDF824A00A9C9200A521AB
:103CA000206B02F04AF9236B07F18042013A03EBE3
:103CB000820727F007074FF0000CBCF10F0F09D85F
:103CC00015F80C3004EB0C0282F8343013B10CF10F
:103CD000010CF2E7002384F84330372E00D9372651
:103CE000E662E66400252565201DFFF729FC04F146
:103CF0001800FFF725FC2461C6F13806A66164624E
:103D0000C4F8785184F87C514FF49072294604F13C
:103D1000580002F012F9194BE36503F168022266BC
:103D2000D033636601220023C4E93C2343F20E33FF
:103D3000A4F8F8304AF6CD33A4F8FA3041F234232F
:103D4000A4F8FC304EF26D63A4F8FE304DF6EC633F
:103D5000A4F800310523A4F802310B23A4F80431A0
:103D60004A464146384601F0FDF82060BAF1000F9E
:103D700001D0CAF80040BDE8F08700BFCC25002084
:103D800038B5002407E004EB840293000E48184481
:103D9000FFF7CBFB0134372CF5D90C4D2846FFF744
:103DA000C4FB0B4C2046FFF7C0FB0A48FFF7BDFBE6
:103DB0000948FFF7BAFB0948FFF7B7FB084B1D603E
:103DC000084B1C6038BD00BF180B0020040B0020FE
:103DD000F00A0020D40A0020C00A0020A80A00200F
:103DE000EC0A0020E80A002010B5044601F0E2F8D1
:103DF000224A136801331360214B1B685BB1214BCE
:103E00001B686BB91E4B1B68DA6AE36A9A4207D8D3
:103E10001B4B1C6004E01A4B1C601368012B29D05B
:103E2000194A1368013313606364E06A174B1B6817
:103E3000984201D9154B186000EB8000211D144BEE
:103E400003EB8000FFF77FFB01F0D6F80D4B1B68FA
:103E50007BB10B4B1B68DA6AE36A9A4209D24FF0D6
:103E6000E0234FF08052C3F8042DBFF34F8FBFF310
:103E70006F8F10BDFFF784FFD2E700BFA40A0020B8
:103E8000780F0020980A0020880A00209C0A002051
:103E9000180B002010B50446583002F057F894F87B
:103EA0007D3163B1012B11D0022B0ED04FF05003A6
:103EB00083F31188BFF36F8FBFF34F8FFEE7206B43
:103EC00000F0E8FF204600F0E5FF10BD204600F0BE
:103ED000E1FFFAE70F4B1B68D3B110B501F06AF8A8
:103EE0000D4BDB68DC68201DFFF751FB0B4A1368A4
:103EF000013B1360074A1368013B136001F07CF833
:103F00002046FFF7C7FF034B1B68002BE6D110BD0F
:103F1000704700BFBC0A0020C00A0020A40A00208D
:103F200008B5FFF7D7FF074B1B68012BF9D94FF0F6
:103F3000E0234FF08052C3F8042DBFF34F8FBFF33F
:103F40006F8FEEE7180B002070B504460D46174B37
:103F50001E68174B18680430FFF719FBB4F1FF3FD8
:103F60000DD03444124B1B685C60A64210D9114B33
:103F700018680F4B19680431FFF7F0FA70BD002D77
:103F8000EFD00B4B196804310B48FFF7DCFAF5E76B
:103F90000A4B1868064B19680431FFF7DFFA084B23
:103FA0001B68A342EAD9064B1C60E7E7A00A002081
:103FB000780F0020E80A0020A80A0020EC0A002060
:103FC000840A002030B587B00B9C8CB10C9DC5B124
:103FD0004FF4C0750495049DB5F5C07F1AD04FF01D
:103FE000500383F31188BFF36F8FBFF34F8FFEE74A
:103FF0004FF0500383F31188BFF36F8FBFF34F8FE0
:10400000FEE74FF0500383F31188BFF36F8FBFF3C8
:104010004F8FFEE70C9D2C63022485F87D41002420
:104020000394029505AC01940A9C0094FFF72CFEC2
:104030000C98FFF7D9FE059807B030BD2DE9F04385
:1040400085B00746884614461E46900000F0A6FE3E
:1040500010B381464FF4C07000F0A0FE0546A8B131
:10406000C0F83090002380F87D31039302900D9BBF
:1040700001930C9B00933346224641463846FFF796
:1040800003FE2846FFF7B0FE012007E0484600F097
:1040900001FF4FF0FF3001E04FF0FF3005B0BDE809
:1040A000F083000010B588B000240594069407AA98
:1040B00006A905A800F0F8FD059B0293069B019355
:1040C00000942346079A1A491A48FFF77BFF1A4BB8
:1040D0001860E8B100F05CFB01281AD14FF05003E2
:1040E00083F31188BFF36F8FBFF34F8F134B1B68A0
:1040F0005833134A1360134B4FF0FF321A60124BC0
:1041000001221A60114B00221A6000F0DDFF03E06B
:104110000020B0F1FF3F01D008B010BD4FF05003B8
:1041200083F31188BFF36F8FBFF34F8FFEE700BF9C
:10413000C8610008213F0008800A0020780F002095
:104140005C010020840A0020980A0020A00A0020B8
:10415000024A136801331360704700BF7C0A0020D5
:10416000014B1868704700BFA00A0020F8B53A4B11
:104170001B68002B64D1394B1D6801351D60C5B922
:10418000374B1B681B6843B14FF0500383F3118812
:10419000BFF36F8FBFF34F8FFEE7314A1168314B8A
:1041A000186810601960304A136801331360FFF714
:1041B00055FD2E4B1B68AB4238D900272C4B1B6892
:1041C000DB6A03EB83039A002A4B9B58012B3CD9F3
:1041D00001273AE00127224B1B681B6843B3204BA1
:1041E0001B68DB68DC6863689D4226D3261D304669
:1041F000FFF7CDF9A36A1BB104F11800FFF7C7F967
:10420000E36A1D4A1268934201D91B4A136003EB0B
:1042100083039A00314617481044FFF794F9E26A85
:10422000134B1B68DB6A9A42D4D2D4E70027D2E74B
:104230000E4B4FF0FF321A60C0E70C4A1360BDE727
:104240000E4A13680133136000270D4B1B6803B13E
:1042500001273846F8BD00BF7C0A0020A00A0020D4
:10426000EC0A0020E80A00208C0A0020840A0020C2
:10427000780F0020180B00209C0A0020940A0020D0
:10428000900A002038B5354B1B6843B94FF05003F6
:1042900083F31188BFF36F8FBFF34F8FFEE700F0FA
:1042A00089FE2E4B1A68013A1A601B68002B4FD109
:1042B0002B4B1B680BB900244BE00024294B1B68D7
:1042C0001BB3284BDB68DC6804F11800FFF75FF9CB
:1042D000251D2846FFF75BF9E06A234B1B689842CF
:1042E00001D9214B186000EB800029461F4B03EBDE
:1042F0008000FFF728F9E26A1D4B1B68DB6A9A42CF
:10430000DCD31C4B01221A60D8E70CB1FFF7A6FCE6
:10431000194B1C6884B9174B1C68D4B14FF0E023CB
:104320004FF08052C3F8042DBFF34F8FBFF36F8F50
:1043300001240EE0013C07D0FFF718FF0028F9D058
:104340000C4B01221A60F5E70B4B00221A60E2E7E2
:10435000002400F051FE204638BD00BF7C0A00203A
:10436000A40A0020D40A00209C0A0020180B002078
:10437000780F0020900A0020940A002010B5A8B100
:104380000446104B1B6843B14FF0500383F3118870
:10439000BFF36F8FBFF34F8FFEE7FFF7D9FE00210A
:1043A0002046FFF7D1FDFFF76DFF48B94FF0E0233E
:1043B0004FF08052C3F8042DBFF34F8FBFF36F8FC0
:1043C00010BD00BF7C0A0020224B1B681BB1224B92
:1043D00001221A607047204B00221A601F4B1B6895
:1043E00003EB83018A001E498A585AB90BB1013B7D
:1043F000F6E74FF0500383F31188BFF36F8FBFF3DD
:104400004F8FFEE7084603EB83018A0002445168A0
:104410004968516003EB830C4FEA8C020832024476
:1044200091420FD003EB830291000D4A0A44526877
:10443000D1680C4A116009490B60136858330A4A65
:1044400013607047486862469100054A0A4450600C
:10445000E8E700BF7C0A0020900A00209C0A0020A8
:10446000180B0020780F00205C01002058B110B517
:104470000C46094A11681831FFF770F801212046EF
:10448000FFF762FD10BD4FF0500383F31188BFF3B7
:104490006F8FBFF34F8FFEE7780F002038B570B1F4
:1044A0000D4614460A4A11681831FFF74CF80CB152
:1044B0004FF0FF3521462846FFF746FD38BD4FF047
:1044C000500383F31188BFF36F8FBFF34F8FFEE765
:1044D000780F002038B5C368DC6824B304F11805F0
:1044E0002846FFF754F8184B1B682BBB251D2846A0
:1044F000FFF74DF8E06A154B1B68984201D9134B42
:10450000186000EB80002946114B03EB8000FFF799
:104510001AF8E26A0F4B1B68DB6A9A4211D9012034
:104520000D4B186038BD4FF0500383F31188BFF373
:104530006F8FBFF34F8FFEE729460848FFF703F858
:10454000E7E70020EEE700BF7C0A00209C0A00207D
:10455000180B0020780F0020900A0020D40A0020B9
:10456000034B1B680360034B1B684360704700BF2D
:104570008C0A0020A00A0020D8B170B50C46054670
:1045800001B300F017FD1B4B19686B68C81A22684D
:10459000B2F1FF3F27D0184E3668D5F800C0B445B9
:1045A00001D08B4224D9824215D8002323600124F4
:1045B0001AE04FF0500383F31188BFF36F8FBFF3FE
:1045C0004F8FFEE74FF0500383F31188BFF36F8FD7
:1045D000BFF34F8FFEE75B1A134423602846FFF7B3
:1045E000BFFF002400E0002400F006FD204670BD5F
:1045F0000124F9E7A00A00208C0A0020014B0122C7
:104600001A607047900A0020054B1B6833B1054BB8
:104610001B680BB1002070470220704701207047D3
:10462000980A00207C0A002000283BD038B50446B8
:104630001E4B1B68834208D04FF0500383F3118850
:10464000BFF36F8FBFF34F8FFEE7036D43B94FF09A
:10465000500383F31188BFF36F8FBFF34F8FFEE7D3
:10466000013B0365C16AC26C91421DD00BB10020B1
:1046700038BD051D2846FEF78AFFE06CE062C0F1F8
:104680003803A3610A4B1B68984201D9084B186094
:1046900000EB80002946074B03EB8000FEF753FF39
:1046A0000120E5E7002070470020E1E7780F0020B7
:1046B0009C0A0020180B0020064B1A681368B3FAF6
:1046C00083F35B09036013B9D3681868704700204F
:1046D000704700BF7C10002008B541600061914226
:1046E0000CD8D21A83699A4201D3012008BD011D5A
:1046F000094B1868FEF732FF0020F7E79A4201D213
:10470000994206D2011D054B1868FEF727FF0020CD
:10471000ECE70120EAE700BF781000207C100020C1
:1047200030B583B000F046FC114B1B681BB100F0A4
:1047300063FC03B030BD0F4D2846FEF7F6FE0E4C6D
:104740002046FEF7F2FE0D4B1D600D4B1C60002352
:1047500000930C4B0C4A10210A20FFF71EF8044B63
:1047600018600028E3D00949FFF73AFADFE700BFF5
:104770007410002094100020801000207C10002075
:10478000781000207C0F0020CC0F0020D0610008A2
:1047900010B588B0FFF7C4FF124B1B68CBB10024E3
:1047A0000594069407AA06A905A800F089FA059BB6
:1047B0000293069B0193022300932346079A0A491A
:1047C0000A48FFF7FFFB0A4B186010B1012008B040
:1047D00010BD4FF0500383F31188BFF36F8FBFF309
:1047E0004F8FFEE774100020D8610008CD4A000802
:1047F00070100020B8B19C4603461848006858B3B2
:1048000000B585B000910192029305291CDCFFF7E9
:10481000FBFE022810D000231A4669460F480068A4
:10482000FFF704F815E04FF0500383F31188BFF34E
:104830006F8FBFF34F8FFEE70023069A6946074844
:104840000068FEF7F3FF04E0002362466946FFF7C5
:10485000B1F805B05DF804FB00207047741000202B
:1048600070B582B01A4B1B681A6852B3DB681E68B9
:10487000DC68251D2846FEF78AFE636A20469847B5
:10488000E369012BEED1A36933449E4207D26360F2
:10489000246129460E4B1868FEF760FEE2E700210E
:1048A00000910B4632462046FFF7A4FF0028D9D1DD
:1048B0004FF0500383F31188BFF36F8FBFF34F8F17
:1048C000FEE7044A106802490860136002B070BD38
:1048D0007C1000207810002038B50546FFF740FC1A
:1048E0000446074B1B68834205D800232B60044B0A
:1048F0001C60204638BDFFF7B3FF01232B60F6E7AD
:104900006C10002070B582B006460D461449096847
:10491000C968CC68201DFEF73AFEE169012904D080
:10492000636A2046984702B070BDA16933462A46A3
:1049300031442046FFF7D0FE0028F1D0002100913D
:104940000B4632462046FFF755FF0028E8D14FF0CE
:10495000500383F31188BFF36F8FBFF34F8FFEE7D0
:104960007C10002070B582B006460C46FFF7F0FBC5
:1049700001A8FFF7B1FF019B23BB054644B9B04234
:104980000CD3FFF77FFC29463046FFF7BBFF1BE047
:104990000E4B1B681C68B4FA84F464092246711B30
:1049A0000B4B1868FFF730F9FFF76CFC60B94FF05C
:1049B000E0234FF08052C3F8042DBFF34F8FBFF3B5
:1049C0006F8F01E0FFF75EFC02B070BD7810002031
:1049D0007410002010B588B002E0049B002B0FDAA1
:1049E000002204A9384B1868FFF74AF8002869D05C
:1049F000049B002BF1DA07990698059B9847ECE792
:104A0000069C636913B1201DFEF7C1FD03A8FFF7E3
:104A100063FF049B092BE3D801A252F823F000BFE7
:104A2000494A0008494A0008494A0008E149000883
:104A30008F4A0008B54A0008494A0008494A000858
:104A4000E14900088F4A0008059BA1690246194404
:104A50002046FFF741FE0028C2D0636A20469847EF
:104A6000E369012BBCD1A269002100910B46059896
:104A700002442046FFF7BEFE0028B1D14FF050039C
:104A800083F31188BFF36F8FBFF34F8FFEE7059954
:104A9000A16131B10346024601442046FFF71CFEE6
:104AA0009EE74FF0500383F31188BFF36F8FBFF37E
:104AB0004F8FFEE794F82C30002B91D1204600F068
:104AC000E9F98DE708B010BD7410002000B583B07F
:104AD00001A8FFF7F1FD0199FFF744FFFFF77AFF07
:104AE000F6E70000EFF3058393B9EFF3108393B972
:104AF0000C4B1868022804D080B90A4B01221A60B6
:104B00007047EFF31183002BF6D06FF0050070476C
:104B10006FF0050070476FF0050070474FF0FF30F1
:104B2000704700BFA819002008B5EFF30583B3B99B
:104B3000EFF31083B3B90E4B1B68022B08D0012B87
:104B400013D10B4B02221A60FFF7ACFA002008BD0C
:104B5000EFF31182002AF2D06FF00500F7E76FF053
:104B60000500F4E76FF00500F1E74FF0FF30EEE7E6
:104B7000A8190020F0B587B000240494EFF3058451
:104B8000002C44D1EFF31083002B40D1344B1B6831
:104B9000022B16D000283AD000238DF817306AB3C4
:104BA000156895B1936903B918235C1E372C52D848
:104BB000546814F0010F50D156694EB14FEA960C6B
:104BC00008E0EFF3118313BBE4E70DF11705E9E704
:104BD0004FF0800C946834B1D768B7F5C07F02D32A
:104BE000176907B1B6B914B14FF0FF340CE0D468BF
:104BF00094B914699CB14FF0FF3405E000241823E8
:104C00004FF0800C0DF11705012C0AD0ACB10498BF
:104C100007B0F0BD0124F7E74FF0FF34F4E70024BC
:104C2000F2E7146992680292019400930B4662467F
:104C30002946FFF7C7F90490E9E704AA0192009317
:104C40000B461FFA8CF22946FFF7F8F90128DED04F
:104C500000230493DBE70020DAE70020D8E700BF59
:104C6000A819002008B5EFF30583A3B9EFF310836B
:104C7000A3B90C4B1B68022B02D040B9002008BD21
:104C8000EFF31183002BF8D06FF00500F7E7FFF783
:104C900075FB0020F3E76FF00500F0E76FF005000B
:104CA000EDE700BFA8190020034B0360034B0B6026
:104CB00080231360704700BF2818002028160020AA
:104CC000034B0360034B0B604FF48073136070471A
:104CD000A8140020A8100020124A12F0070F1ED0BE
:104CE000D11D21F00701C1F5406313440A460E4867
:104CF0000260002141601344083B23F007030B4886
:104D0000036059601960991A51601360084B19606B
:104D1000084B1960084B4FF000421A6070474FF47F
:104D20004063E4E7C4190020BC190020B819002032
:104D3000B0190020B4190020AC190020154B1A46F8
:104D40001B688342FBD3516802EB010C844509D0F8
:104D5000416800EB010C634509D00360904218D014
:104D6000106070474068014451601046F0E710B48D
:104D7000094C2468A3420AD05B6819444160136857
:104D80001B680360904200D0106010BC7047046044
:104D9000F8E77047BC190020B819002038B5044660
:104DA000FFF7D6F9364B1B68B3B1364B1B681C4274
:104DB0004CD1002C4CD004F1080214F0070F02D0A3
:104DC00022F007020832002A51D02F4B1B68934271
:104DD0004FD32E490C6804E0FFF77EFFE5E721463C
:104DE0001C466368934202D22368002BF7D1244B00
:104DF0001B68A3423FD00D68083523680B606368C9
:104E00009B1A102B10D9A01810F0070F08D04FF0E4
:104E1000500383F31188BFF36F8FBFF34F8FFEE70B
:104E200043606260FFF78AFF626817490B689B1A4C
:104E30000B60174909688B4201D215490B60114B71
:104E40001B68134363600023236002E0002500E039
:104E50000025FFF717FA15F0070F0ED04FF050039B
:104E600083F31188BFF36F8FBFF34F8FFEE70025E9
:104E7000EFE70025EDE70025EBE7284638BD00BF4A
:104E8000B8190020AC190020B4190020BC1900206A
:104E9000B019002080B338B50446A0F1080550F8D9
:104EA000043C164A1268134208D14FF0500383F3B2
:104EB0001188BFF36F8FBFF34F8FFEE750F8081CC8
:104EC00041B14FF0500383F31188BFF36F8FBFF3ED
:104ED0004F8FFEE723EA020340F8043CFFF738F95E
:104EE00054F8041C064A13680B4413602846FFF765
:104EF00025FFFFF7C7F938BD704700BFAC19002088
:104F0000B419002082B0002301930D4B1B68B3F14C
:104F1000FF3F08D04FF0500383F31188BFF36F8F2A
:104F2000BFF34F8FFEE74FF0500383F31188BFF3B9
:104F30006F8FBFF34F8F019B002BFCD002B07047E7
:104F40005C00002006480068006880F3088862B6AC
:104F500061B6BFF34F8FBFF36F8F00DF00BF00005C
:104F600008ED00E04FF0807340F8043C21F00101AF
:104F700040F8081C034B40F80C3C40F8202C40380B
:104F8000704700BF054F000800000000000000004F
:104F9000074B19680868B0E8F00F80F30988BFF381
:104FA0006F8F4FF0000080F311884EF00D0E7047A8
:104FB000780F00204FF0500383F31188BFF36F8FF9
:104FC000BFF34F8F0B4A136801331360012B00D0DE
:104FD00070474FF0E023D3F8043D13F0FF0FF7D0F4
:104FE0004FF0500383F31188BFF36F8FBFF34F8FE0
:104FF000FEE700BF5C000020094B1B6843B94FF07F
:10500000500383F31188BFF36F8FBFF34F8FFEE719
:10501000013B034A13600BB983F31188704700BF4B
:105020005C00002000000000000000000000000004
:10503000EFF30980BFF36F8F0D4B1A6820E9F00F73
:1050400010602DE908404FF0500080F31188FFF701
:10505000BBF94FF0000080F31188BDE808401968E3
:105060000868B0E8F00F80F30988BFF36F8F7047CE
:10507000780F002008B54FF0500383F31188BFF379
:105080006F8FBFF34F8FFFF771F828B14FF0E02318
:105090004FF08052C3F8042D002383F3118808BD1C
:1050A0004FF0E022002313619361054B1B68054913
:1050B000A1FB03139B09013B536107231361704755
:1050C00058000020D34D621010B582B02A4B1A78D8
:1050D000D2B20192FF221A701B78DBB28DF8033036
:1050E0009DF8033003F05003244A1370244B072229
:1050F0001A6009E0224A1368013B13609DF80330EF
:105100005B00DBB28DF803309DF8033013F0800FA5
:10511000F0D11B4B1B68032B08D04FF0500383F3D7
:105120001188BFF36F8FBFF34F8FFEE71B02144A46
:10513000136003F4E0631360019BDBB20E4A13704B
:105140004FF0E023D3F8202D42F47002C3F8202D55
:10515000D3F8202D42F07042C3F8202DFFF7A0FFB6
:105160000024084B1C60FFF7EDFEFFF72DF9FFF759
:10517000C9FE204602B010BD00E400E0C8250020B2
:10518000C42500205C000020EFF305830F2B0FD90E
:10519000114A9B5CDBB2114A12789A4208D94FF04F
:1051A000500383F31188BFF36F8FBFF34F8FFEE778
:1051B0004FF0E023D3F80C3D03F4E063084A126893
:1051C000934208D94FF0500383F31188BFF36F8FD8
:1051D000BFF34F8FFEE77047F0E300E0C8250020E3
:1051E000C425002098B108B50346D0F8B40210B128
:1051F0000020C3F8B40209B1C3F8B012012183F84A
:105200009C121A701846FBF78FFA002008BD022086
:10521000704719B1C0F8B4120020704702207047DF
:1052200008B5FBF7B5FA002008BD08B5D0F8B432D0
:105230002BB11B68984700B908BD0220FCE702208B
:10524000FAE708B5D0F8B4325B689847002008BD8B
:1052500038B5044600F52A75284600F035F90123D3
:10526000C4F89432B4F8AE32C4F8983294F8A81264
:1052700001F01F03012B0ED0022B11D02BB101F036
:1052800080012046FBF79FFA03E02946204600F004
:10529000C9FA002038BD2946204600F0F7FAF8E7A1
:1052A0002946204600F022FBF3E738B504460D46B8
:1052B00091BB1346D0F89422032A03D0052A24D0A8
:1052C000084633E0D0F86011D0F8642191420DD93E
:1052D000891AC0F860118A4206D98AB21946204656
:1052E00000F027FC284621E092B2F7E7D0F8B4326C
:1052F0001B691BB190F89C22032A04D0204600F0C1
:1053000020FC284612E09847F8E70021C0F89412E4
:10531000FBF759FA284609E0D0F8B4329B6933B15B
:1053200090F89C22032A04D19847002038BD02201F
:10533000FCE70220FAE738B504460D46002953D1B0
:105340001346D0F89422022A0CD0042A00D01AB9AD
:1053500080212046FBF737FA94F8A032012B3ED08B
:10536000284638BD026A416A8A421BD8C269B2FB2C
:10537000F1F301FB13232BB9914203D8D0F89832F3
:105380009A421CD3D4F8B432DB681BB194F89C2247
:10539000032A21D080212046FBF715FA204600F091
:1053A000DBFBD9E7521A026292B2194600F0B9FB50
:1053B00000231A4619462046FBF73CFACCE70022A8
:1053C000114600F0AEFB0021C4F898120B460A46C5
:1053D0002046FBF72FFABFE720469847DAE700237D
:1053E00084F8A0322846BCE7D0F8B4325B6933B108
:1053F00090F89C22032A04D198470020B1E70220AC
:10540000AFE70220ADE770B5044640230022114605
:10541000FBF7C6F90125C4F858514026C4F8646169
:105420003346002280212046FBF7BAF9A561666267
:1054300084F89C520023C4F894326360C4F8A43208
:10544000D4F8B8322BB1D4F8B4325B6800212046CE
:105450009847002070BD01740020704790F89C327E
:1054600080F89D32042380F89C320020704790F829
:105470009C32042B01D00020704790F89D3280F8B8
:105480009C32F8E708B590F89C32032B01D000203D
:1054900008BDD0F8B432DB69002BF8D09847F6E7A6
:1054A0000346002002E00130C0B201331A78002A1E
:1054B000F9D1704708B54B88012B00D008BDC0F862
:1054C000A43200F03EFBF9E70B7803704B78437091
:1054D0008B78CA7803EB022343800B794A7903EB7C
:1054E000022383808B79CA7903EB0223C380704740
:1054F00010B504468021FBF766F900212046FBF732
:1055000062F910BD30B583B005460C460023ADF8F6
:1055100006304A88130A013B062B00F2A480DFE81C
:1055200003F004182CA2A2869300D0F8B0321B68B6
:105530000DF10601007C9847BDF806201AB1E388FA
:10554000002B40F09480E388002B00F09A8003B099
:1055500030BD037C43B9D0F8B4329B6A0DF106002C
:10556000984702234370E7E7D0F8B432DB6A0DF1C5
:105570000600984702234370DEE7D2B2052A52D8CC
:10558000DFE802F003101D2A3744D0F8B0325B6820
:1055900023B10DF10601007C9847CDE72146FFF7C6
:1055A000A7FFD4E7D0F8B0329B6823B10DF1060114
:1055B000007C9847C0E72146FFF79AFFC7E7D0F87D
:1055C000B032DB6823B10DF10601007C9847B3E7E8
:1055D0002146FFF78DFFBAE7D0F8B0321B6923B13F
:1055E0000DF10601007C9847A6E72146FFF780FFF2
:1055F000ADE7D0F8B0325B6923B10DF10601007C54
:10560000984799E72146FFF773FFA0E7D0F8B0323B
:105610009B6923B10DF10601007C98478CE7214678
:10562000FFF766FF93E72146FFF762FF8FE7037CF2
:1056300033B9D0F8B4325B6B0DF1060098477BE7C5
:105640002146FFF755FF82E7037C43B9D0F8B43217
:105650001B6B0DF106009847072343706CE721464A
:10566000FFF746FF73E72146FFF742FF6FE79A42D5
:1056700028BF1A46ADF806200146284600F044FA35
:1056800061E7284600F05DFA61E738B504468B888B
:10569000F3B9CB88E3B94B887F2B19D803F07F058A
:1056A00090F89C32032B0CD080F89E522946FBF7D1
:1056B000B1F8204600F045FA35B1022384F89C3257
:1056C00009E0FFF715FF06E0012384F89C3202E0B1
:1056D0002046FFF70DFF38BD38B504460D468978E2
:1056E000284B197001290ED890F89C32022B0ED04D
:1056F000032B21D02946FFF7FBFE224B19782046C9
:10570000FFF79FFD02E02946FFF7F2FE38BD81B1A9
:105710004160032380F89C32FFF787FD022803D005
:10572000204600F00EFAF1E729462046FFF7E0FE9A
:10573000ECE700F006FAE9E789B1436899421DD029
:10574000D9B2FFF77EFD0F4B197861602046FFF755
:105750006CFD02280DD0204600F0F3F9D6E70223B5
:1057600080F89C324160FFF76CFD204600F0E9F9BB
:10577000CCE729462046FFF7BBFEC7E700F0E1F97A
:10578000C4E700BFC925002008B5CB88012B0AD18A
:1057900090F89C32022B09D9032B09D10122011D5B
:1057A00000F0B2F901E0FFF7A3FE08BD5BB213B948
:1057B000FFF79EFEF9E70146002341F8083F01226A
:1057C00000F0A2F9F1E708B590F89C32013B022BFA
:1057D00012D8CB88022B0CD10123C360D0F8A4329D
:1057E0000BB10323C360022200F10C0100F08CF91D
:1057F00008BDFFF77DFEFBE7FFF77AFEF8E708B587
:1058000090F89C32013B022B09D84B88012B00D029
:1058100008BD0023C0F8A43200F093F9F8E7FFF7C1
:1058200067FEF5E708B50B7803F06003202B05D081
:10583000402B03D043B1FFF75BFE03E0D0F8B43256
:105840009B689847002008BD4B78092B1BD8DFE8E0
:1058500003F011171A141A08051A0E0BFFF752FE5F
:10586000F0E7FFF712FFEDE7FFF736FFEAE7FFF794
:105870008BFFE7E7FFF7A7FFE4E7FFF71BFEE1E792
:10588000FFF7BDFFDEE7FFF733FEDBE738B5054680
:105890000C460B7803F06003202B06D0402B04D07D
:1058A0001BB1FFF725FE002038BD95F89C32013B67
:1058B000022B16D82379012B0ED8D5F8B4329B6869
:1058C000214628469847E388002BECD10028EAD1EE
:1058D000284600F036F9E6E721462846FFF708FE9D
:1058E000E1E721462846FFF703FEDCE770B50546F1
:1058F0008B880C7804F06004202C07D0DAB2402C9E
:1059000004D05CB1FFF7F4FD002405E0D5F8B43213
:105910009B68284698470024204670BD202C09D05B
:105920004E78012E33D0032E0AD0002E55D0FFF72B
:10593000DFFDF1E7D0F8B4329B6898470446EBE707
:1059400090F89C32022B04D0032B11D0FFF7D0FD2E
:10595000E2E70AB1802A03D12846FFF7C9FDDBE759
:105960001146FAF730FF80212846FAF72CFFD3E7DB
:105970004B8823B91AB1802A01D0CB881BB12846A5
:1059800000F0DFF8C8E71146FAF71DFFF7E790F8D7
:105990009C32022B04D0032B11D0FFF7A9FDBBE7EB
:1059A0000AB1802A03D12846FFF7A2FDB4E71146C9
:1059B000FAF709FF80212846FAF705FFACE74B8884
:1059C000002BA9D112F07F0F03D1284600F0B9F8BF
:1059D000A2E71146FAF7FFFEF7E790F89C020228CB
:1059E00006D0032829D02846FFF782FD344693E7E6
:1059F0000AB1802A13D113F0800F15D102F07F0273
:105A000002EB8202910001F5A871294404310023C0
:105A10000B600222284600F077F834467CE72846DF
:105A2000FFF766FD344677E702F07F0202EB820261
:105A30009100103129440431E9E75BB2002B1FDBF0
:105A400002F00F0000EB800005EB8000D0F8580159
:105A500020B3002B27DB02F07F0303EB83039C00C2
:105A600004F5A8742C4404340AB1802A24D10023FC
:105A7000236002222146284600F046F834464BE7D0
:105A800002F00F0000EB800005EB80008069002829
:105A9000DFD12846FFF72CFD34463DE72846FFF7C7
:105AA00027FD344638E702F07F0303EB83039C00B5
:105AB00010342C440434D7E711462846FAF793FEF5
:105AC00010B101232360D4E700232360D1E7D0B1D4
:105AD00070B50D4616460446FFF7E2FC431C5B001A
